:100000000C9434000C9451000C9451000C94510049
:100010000C9451000C9451000C9451000C9451001C
:100020000C9451000C9451000C9451000C9451000C
:100030000C9451000C9451000C9451000C945100FC
:100040000C9451000C9451000C9451000C945100EC
:100050000C9451000C9451000C9451000C945100DC
:100060000C9451000C94510011241FBECFEFD8E026
:10007000DEBFCDBF11E0A0E0B1E0E0ECF0E102C0F6
:1000800005900D92AE37B107D9F711E0AEE7B1E0B8
:1000900001C01D92A83AB107E1F70E944D050C94EA
:1000A0005E080C940000FC018281809392018181A2
:1000B000809393018081809394010895FC01848151
:1000C0008093950185818093960186818093970125
:1000D0008381809398010895809194011F928F935A
:1000E000809193011F928F93809192011F928F9321
:1000F00088E291E09F938F9389E991E09F938F939A
:100100000E948D058DB79EB70A960FB6F8949EBFD4
:100110000FBE8DBF08958091980124E0829FC00199
:10012000112480509F4F9F938F93809197011F922E
:100130008F93809196011F928F93809195011F92CA
:100140008F9387E391E09F938F9382E891E09F9351
:100150008F930E948D058DB79EB70C960FB6F894BD
:100160009EBF0FBE8DBF0895CF93DF931F92CDB773
:10017000DEB719829E012F5F3F4F41E06EE080EDB8
:100180000E94DB020F90DF91CF9108951F93CF93D0
:10019000DF93CDB7DEB728970FB6F894DEBF0FBE5A
:1001A000CDBF182F9E012F5F3F4F47E060E080EDED
:1001B00098870E942103DE011196E12F9885F92F7F
:1001C000CE0108963AEF2D91422F42954F70439FF2
:1001D000200D11242193A817B907A9F728960FB667
:1001E000F894DEBF0FBECDBFDF91CF911F91089570
:1001F0000F931F93CF93DF93CDB7DEB728970FB63A
:10020000F894DEBF0FBECDBFFC0180811F928F939B
:1002100081811F928F9382811F928F9388E291E058
:100220009F938F938E010F5F1F4F1F930F930E9419
:100230008D05C8010E943E020FB6F894DEBF0FBEC6
:10024000CDBF28960FB6F894DEBF0FBECDBFDF91AD
:10025000CF911F910F9108950F931F93CF93DF9329
:10026000CDB7DEB760970FB6F894DEBF0FBECDBF37
:10027000FC01838124E0829FC001112484509F4FA0
:100280009F938F9386811F928F9385811F928F9367
:1002900084811F928F9387E391E09F938F938E01C8
:1002A0000F5F1F4F1F930F930E948D05C8010E947F
:1002B0003E020FB6F894DEBF0FBECDBF60960FB6FC
:1002C000F894DEBF0FBECDBFDF91CF911F910F918C
:1002D0000895CF93DF9300D01F92CDB7DEB7382FAC
:1002E000562F2AE0842F622F0E946D05982F990FB8
:1002F000980F990F940F9983852F0E946D05982F61
:10030000990F980F990F950F9A83832F0E946D056F
:10031000982F990F980F990F930F9B839E012F5F32
:100320003F4F43E060E080ED0E94DB020F900F90B2
:100330000F90DF91CF910895CF93DF9300D000D03D
:10034000CDB7DEB7382F562F29832AE0842F622FAE
:100350000E946D05982F990F980F990F940F9A830B
:10036000852F0E946D05982F990F980F990F950F63
:100370009B83832F0E946D05982F990F980F990FDB
:10038000930F9C839E012F5F3F4F44E063E080ED1D
:100390000E94DB020F900F900F900F90DF91CF9192
:1003A0000895282F6AE00E946D05982F990F980FE5
:1003B000990F892F820F0895982F92959F702AEF99
:1003C000929F800D1124089580FF02C05C9A01C0A5
:1003D0005C9881FF02C05D9A01C05D9882FF02C0F7
:1003E0005E9A01C05E9883FF02C05F9A08955F988D
:1003F000089589B1829581704D9982604E9984608B
:100400004F9988600895CF93DF93549855985698E4
:100410005798289A2F9A0E94F90190E1899FE0014C
:1004200011242F982F9A0E94F9012F988C2BDF917D
:10043000CF9108952E980C940302CF93C82F549A0D
:10044000559A569A579A28982F9A82958F700E949B
:10045000E4012F982F9A8C2F0E94E4012F980E947C
:100460001A0287FDFCCFCF9108952E980C941D029F
:100470002E9A0C941D022E9A0C940302CF93DF93B4
:10048000EC018991882319F00E943802FACFDF919C
:10049000CF91089590E4699F800D112480680C9499
:1004A000350281E00E94350283EF91E00197F1F778
:1004B00000C00000089582E00E94350283EF91E0C1
:1004C0000197F1F700C000000895CF93549A559A10
:1004D000569A579A279A269A209A85EA9EE001977B
:1004E000F1F700C000002E982F982898C3E02F9AAB
:1004F00083E00E94E4012F9881EE94E00197F1F7E8
:1005000000C00000C15099F72F9A82E00E94E401D8
:100510002F9889EF90E00197F1F700C0000088E282
:100520000E94350288E00E94350281E00E94350277
:1005300086E00E9435028CE0CF910C943502BC011C
:1005400088EE93E00E947905862F603148F0772786
:10055000CB01409797FF02C0CB010F9795958795E8
:100560008093B800089584EA8093BC008091BC0019
:1005700087FFFCCF089584E98093BC008091BC0084
:1005800084FDFCCF08958093BB0084E88093BC0079
:100590008091BC0087FFFCCF089520E4829FC001BA
:1005A000112484688093BC008091BC0087FFFCCF3D
:1005B0008091BB000895EF92FF921F93CF93DF933A
:1005C00000D000D0CDB7DEB7142F2B833C836A83D5
:1005D00089830E94B30289810E94C3026A81862FA7
:1005E0000E94C3022B81E22E3C81F32E120F1E15B6
:1005F00031F0F70181917F010E94C302F8CF0F9083
:100600000F900F900F90DF91CF911F91FF90EF907F
:100610000C94BB02CF93DF931F92CDB7DEB78983D3
:100620000E94B30289818F5F0E94C30280E00E9412
:10063000CD0289830E94BB0289810F90DF91CF9107
:100640000895EF92FF921F93CF93DF9300D01F92F4
:10065000CDB7DEB7F82E142F2A833B8369830E941F
:10066000B3028F2D0E94C3026981862F0E94C302AC
:100670000E94B30281E08F0D0E94C30211502A81B3
:10068000E22E3B81F32E1F3F59F081E0111101C092
:1006900080E00E94CD02F70181937F011150F3CFDA
:1006A0000F900F900F90DF91CF911F91FF90EF90DF
:1006B0000C94BB02CF93DF9300D0CDB7DEB76A8333
:1006C00089830E94B30289810E94C3026A81862FB6
:1006D0000E94C3020F900F90DF91CF910C94BB0248
:1006E0001F93CF93DF931F92CDB7DEB7182F0E94D1
:1006F000B302812F0E94C3020E94B30281E0810FE6
:100700000E94C30280E00E94CD0289830E94BB0246
:1007100089810F90DF91CF911F9108958091810180
:10072000853019F41092810108958F5F80938101C3
:10073000089580918001811102C00C948E03813054
:10074000B1F480918101813091F480917F018230F8
:1007500021F08F5F80937F01089540919401609113
:100760009301809192010E94690110928001089585
:100770002091950130E02F5F3F4FE0919601F0E02E
:10078000E45EFE4F408150E081E02417350709F018
:1007900080E00895E0919601F0E0E45EFE4F8081F4
:1007A000089580918001813009F04EC080918101CF
:1007B000813039F580917F0181110AC080919201C9
:1007C000882311F0815001C087E18093920117C006
:1007D000813051F480919301882311F0815001C040
:1007E0008CE3809393010BC0823049F48091940193
:1007F000882311F0815001C08CE3809394010C9404
:100800006C00823009F580917E0181110FC00E9439
:10081000B803813031F4809195018F5F8093950109
:1008200011C081110FC0109295010CC0813051F49C
:10083000909196019C3021F09F5F9093960102C0A9
:10084000809396010C948B0008950E94510281EAD6
:1008500091E00E94F80061E080E00C944A0281EA95
:1008600091E00C942C0181EA91E00E94C6000E9464
:1008700025040C942F040E9451028DE491E00C9405
:100880003E020E9451028BE591E00C943E020E94D0
:10089000510286E691E00C943E020E94510282E7EA
:1008A00091E00C943E0281110AC080918101811176
:1008B00002C085E001C0815080938101089581309C
:1008C00011F40C948E03089580918001811102C06F
:1008D0000C945304813071F480918101813051F482
:1008E00080917F01882321F0815080937F010895BA
:1008F00010928001089580918001811104C081E0EF
:10090000809380010895813011F410928001089540
:1009100080918001811102C00C947B04813009F028
:1009200051C080918101813051F580917F01811109
:100930000BC080919201873121F08F5F80939201EB
:100940001CC01092920119C0813059F4809193011A
:100950008B3321F08F5F809393010FC0109293012E
:100960000CC0823051F4809194018B3321F08F5F61
:100970008093940102C0109294010C946C00823018
:1009800009F580917E0181110FC00E94B80381306A
:1009900031F4809195018F5F8093950111C0811191
:1009A0000FC0109295010CC0813051F490919601C6
:1009B0009C3021F09F5F9093960102C08093960136
:1009C0000C948B00089589B129B190E002C09595EF
:1009D00087952A95E2F780FD03C00E9488040DC028
:1009E000499903C00E94D10308C04A9903C00E94DC
:1009F000640403C04B9B0E9499032FE78AE196E0B1
:100A0000215080409040E1F700C00000089581EA45
:100A100091E00E9453000E946C008091800181301F
:100A2000F1F40E94510289E991E00E943E02809116
:100A30007F01811102C061E009C0813019F461E0D9
:100A400083E004C0823041F461E086E00E944A0203
:100A50008BE791E00E943E020E94E304DECF0895FE
:100A600080918101811102C00C943304813041F4E2
:100A70000E943B0480918001813071F40C94070541
:100A8000823011F40C944104833011F40C94470427
:100A9000843011F40C944D04089580EF8AB98FE0EE
:100AA0008BB90E9465020E9451020E945B0284E69B
:100AB00090E00E949F020E94B40040E060E080E06D
:100AC0000E94690121E040E060E080E00E949C011A
:100AD0000E94E3040E943005FBCF991B79E004C01B
:100AE000991F961708F0961B881F7A95C9F780956D
:100AF0000895AA1BBB1B51E107C0AA1FBB1FA61765
:100B0000B70710F0A61BB70B881F991F5A95A9F7B6
:100B100080959095BC01CD010895AEE0B0E0E3E989
:100B2000F5E00C9435080D891E8986E08C831A83C4
:100B300009838FEF9FE79E838D83AE01475E5F4FF2
:100B40006F89788DCE0101960E94AF05EF81F885FF
:100B5000E00FF11F10822E96E4E00C945108ACE0F7
:100B6000B0E0E5EBF5E00C9427087C016B018A010D
:100B7000FC0117821682838181FFBDC1CE010196DF
:100B80004C01F7019381F60193FD859193FF8191CB
:100B90006F01882309F4ABC1853239F493FD859147
:100BA00093FF81916F01853229F4B70190E00E9493
:100BB0009707E7CF512C312C20E02032A0F48B3264
:100BC00069F030F4803259F0833269F420612CC02E
:100BD0008D3239F0803339F4216026C022602460E0
:100BE00023C0286021C027FD27C030ED380F3A30E0
:100BF00078F426FF06C0FAE05F9E300D1124532ED4
:100C000013C08AE0389E300D1124332E20620CC0B0
:100C10008E3221F426FD6BC1206406C08C3611F49F
:100C2000206802C0883641F4F60193FD859193FF58
:100C300081916F018111C1CF982F9F7D9554933081
:100C400028F40C5F1F4FFFE3F9830DC0833631F0AA
:100C5000833771F0833509F05BC022C0F8018081D1
:100C600089830E5F1F4F44244394512C540115C0B7
:100C70003801F2E06F0E711CF801A080B18026FFF0
:100C800003C0652D70E002C06FEF7FEFC5012C87B8
:100C90000E948C072C0183012C852F77222E17C0F0
:100CA0003801F2E06F0E711CF801A080B18026FFC0
:100CB00003C0652D70E002C06FEF7FEFC5012C8788
:100CC0000E9481072C012C852068222E830123FCA1
:100CD0001BC0832D90E048165906B0F4B70180E29E
:100CE00090E00E9497073A94F4CFF50127FC859194
:100CF00027FE81915F01B70190E00E9497073110B4
:100D00003A94F1E04F1A51084114510471F7E5C0CB
:100D1000843611F0893639F5F80127FF07C0608164
:100D20007181828193810C5F1F4F08C06081718146
:100D3000882777FD8095982F0E5F1F4F2F76B22E54
:100D400097FF09C090958095709561957F4F8F4F63
:100D50009F4F2068B22E2AE030E0A4010E94C9070C
:100D6000A82EA81844C0853729F42F7EB22E2AE079
:100D700030E025C0F22FF97FBF2E8F36C1F018F476
:100D8000883579F0B4C0803719F0883721F0AFC0CA
:100D90002F2F2061B22EB4FE0DC08B2D8460B82E93
:100DA00009C024FF0AC09F2F9660B92E06C028E014
:100DB00030E005C020E130E002C020E132E0F8017F
:100DC000B7FE07C060817181828193810C5F1F4FE4
:100DD00006C06081718180E090E00E5F1F4FA4012A
:100DE0000E94C907A82EA818FB2DFF77BF2EB6FEBC
:100DF0000BC02B2D2E7FA51450F4B4FE0AC0B2FCFC
:100E000008C02B2D2E7E05C07A2C2B2D03C07A2CEA
:100E100001C0752C24FF0DC0FE01EA0DF11D80817B
:100E2000803311F4297E09C022FF06C073947394A5
:100E300004C0822F867809F0739423FD13C020FF2D
:100E400006C05A2C731418F4530C5718732C7314CF
:100E500068F4B70180E290E02C870E9497077394B2
:100E60002C85F5CF731410F4371801C0312C24FFF2
:100E700012C0B70180E390E02C870E9497072C8571
:100E800022FF17C021FF03C088E590E002C088E779
:100E900090E0B7010CC0822F867859F021FD02C086
:100EA00080E201C08BE227FD8DE2B70190E00E9455
:100EB0009707A51438F4B70180E390E00E949707E4
:100EC0005A94F7CFAA94F401EA0DF11D8081B7017D
:100ED00090E00E949707A110F5CF332009F451CE7E
:100EE000B70180E290E00E9497073A94F6CFF701AD
:100EF0008681978102C08FEF9FEF2C96E2E10C94E0
:100F00004308FC010590615070400110D8F78095AE
:100F100090958E0F9F1F0895FC01615070400190C5
:100F20000110D8F7809590958E0F9F1F08950F930D
:100F30001F93CF93DF93182F092FEB018B8181FD36
:100F400003C08FEF9FEF20C082FF10C04E815F81F2
:100F50002C813D81421753077CF4E881F9819F0180
:100F60002F5F3F4F39832883108306C0E885F985BA
:100F7000812F0995892B29F72E813F812F5F3F4FC4
:100F80003F832E83812F902FDF91CF911F910F915F
:100F90000895FA01AA27283051F1203181F1E8940F
:100FA0006F936E7F6E5F7F4F8F4F9F4FAF4FB1E05C
:100FB0003ED0B4E03CD0670F781F891F9A1FA11D57
:100FC000680F791F8A1F911DA11D6A0F711D811D58
:100FD000911DA11D20D009F468943F912AE0269F1D
:100FE00011243019305D3193DEF6CF010895462F7C
:100FF0004770405D4193B3E00FD0C9F7F6CF462F5D
:101000004F70405D4A3318F0495D31FD40524193C5
:1010100002D0A9F7EACFB4E0A69597958795779582
:101020006795BA95C9F700976105710508959B0109
:10103000AC010A2E06945795479537952795BA9592
:10104000C9F7620F731F841F951FA01D08952F926B
:101050003F924F925F926F927F928F929F92AF9248
:10106000BF92CF92DF92EF92FF920F931F93CF9395
:10107000DF93CDB7DEB7CA1BDB0B0FB6F894DEBF2C
:101080000FBECDBF09942A88398848885F846E8452
:101090007D848C849B84AA84B984C884DF80EE809C
:1010A000FD800C811B81AA81B981CE0FD11D0FB6A5
:1010B000F894DEBF0FBECDBFED010895F894FFCFC9
:1010C000706F6E0077746F0073726F00637A7700D1
:1010D00070696100736F62006E6965001F1C1F1EDE
:1010E0001F1E1F1F1E1F1E1F253032643A2530325F
:1010F000643A2530326400253032642D2530326464
:101100002D32302530326420202025730055737431
:10111000617720476F647A696E65005573746177F3
:10112000204461746500557374617720416C61726D
:0E1130006D004F6E202F204F6666002D2D00A3
:00000001FF
